{
  "contractName": "CampaignCreator",
  "abi": [
    {
      "constant": true,
      "inputs": [
        {
          "internalType": "uint256",
          "name": "",
          "type": "uint256"
        }
      ],
      "name": "campaigns",
      "outputs": [
        {
          "internalType": "address",
          "name": "",
          "type": "address"
        }
      ],
      "payable": false,
      "stateMutability": "view",
      "type": "function"
    },
    {
      "constant": false,
      "inputs": [
        {
          "internalType": "uint256",
          "name": "minContribution",
          "type": "uint256"
        },
        {
          "internalType": "string",
          "name": "description",
          "type": "string"
        }
      ],
      "name": "createCampaign",
      "outputs": [],
      "payable": false,
      "stateMutability": "nonpayable",
      "type": "function"
    },
    {
      "constant": true,
      "inputs": [],
      "name": "getDeployedCampaigns",
      "outputs": [
        {
          "internalType": "address[]",
          "name": "",
          "type": "address[]"
        }
      ],
      "payable": false,
      "stateMutability": "view",
      "type": "function"
    }
  ],
  "bytecode": "0x608060405234801561001057600080fd5b506112ae806100206000396000f3fe608060405234801561001057600080fd5b50600436106100415760003560e01c8063141961bc146100465780634220d656146100b45780634acb9d4f14610179575b600080fd5b6100726004803603602081101561005c57600080fd5b81019080803590602001909291905050506101d8565b604051808273ffffffffffffffffffffffffffffffffffffffff1673ffffffffffffffffffffffffffffffffffffffff16815260200191505060405180910390f35b610177600480360360408110156100ca57600080fd5b8101908080359060200190929190803590602001906401000000008111156100f157600080fd5b82018360208201111561010357600080fd5b8035906020019184600183028401116401000000008311171561012557600080fd5b91908080601f016020809104026020016040519081016040528093929190818152602001838380828437600081840152601f19601f820116905080830192505050505050509192919290505050610214565b005b610181610358565b6040518080602001828103825283818151815260200191508051906020019060200280838360005b838110156101c45780820151818401526020810190506101a9565b505050509050019250505060405180910390f35b600081815481106101e557fe5b906000526020600020016000915054906101000a900473ffffffffffffffffffffffffffffffffffffffff1681565b6000338383604051610225906103e6565b808473ffffffffffffffffffffffffffffffffffffffff1673ffffffffffffffffffffffffffffffffffffffff16815260200183815260200180602001828103825283818151815260200191508051906020019080838360005b8381101561029a57808201518184015260208101905061027f565b50505050905090810190601f1680156102c75780820380516001836020036101000a031916815260200191505b50945050505050604051809103906000f0801580156102ea573d6000803e3d6000fd5b50905060008190806001815401808255809150509060018203906000526020600020016000909192909190916101000a81548173ffffffffffffffffffffffffffffffffffffffff021916908373ffffffffffffffffffffffffffffffffffffffff16021790555050505050565b606060008054806020026020016040519081016040528092919081815260200182805480156103dc57602002820191906000526020600020905b8160009054906101000a900473ffffffffffffffffffffffffffffffffffffffff1673ffffffffffffffffffffffffffffffffffffffff1681526020019060010190808311610392575b5050505050905090565b610e86806103f48339019056fe60806040523480156200001157600080fd5b5060405162000e8638038062000e86833981810160405260608110156200003757600080fd5b810190808051906020019092919080519060200190929190805160405193929190846401000000008211156200006c57600080fd5b838201915060208201858111156200008357600080fd5b8251866001820283011164010000000082111715620000a157600080fd5b8083526020830192505050908051906020019080838360005b83811015620000d7578082015181840152602081019050620000ba565b50505050905090810190601f168015620001055780820380516001836020036101000a031916815260200191505b50604052505050826000806101000a81548173ffffffffffffffffffffffffffffffffffffffff021916908373ffffffffffffffffffffffffffffffffffffffff1602179055508160018190555080600290805190602001906200016b92919062000175565b5050505062000224565b828054600181600116156101000203166002900490600052602060002090601f016020900481019282601f10620001b857805160ff1916838001178555620001e9565b82800160010185558215620001e9579182015b82811115620001e8578251825591602001919060010190620001cb565b5b509050620001f89190620001fc565b5090565b6200022191905b808211156200021d57600081600090555060010162000203565b5090565b90565b610c5280620002346000396000f3fe60806040526004361061009c5760003560e01c806381d12c581161006457806381d12c58146102365780638a9cfd5514610336578063937e09b114610428578063c121b1d214610453578063d7bb99ba1461047e578063d7d1bbdb146104885761009c565b806303441006146100a1578063110842cb146100dc578063119f87471461016c578063481c6a7514610176578063647c75e2146101cd575b600080fd5b3480156100ad57600080fd5b506100da600480360360208110156100c457600080fd5b81019080803590602001909291905050506104c3565b005b3480156100e857600080fd5b506100f1610603565b6040518080602001828103825283818151815260200191508051906020019080838360005b83811015610131578082015181840152602081019050610116565b50505050905090810190601f16801561015e5780820380516001836020036101000a031916815260200191505b509250505060405180910390f35b6101746106a1565b005b34801561018257600080fd5b5061018b6106ab565b604051808273ffffffffffffffffffffffffffffffffffffffff1673ffffffffffffffffffffffffffffffffffffffff16815260200191505060405180910390f35b3480156101d957600080fd5b5061021c600480360360208110156101f057600080fd5b81019080803573ffffffffffffffffffffffffffffffffffffffff1690602001909291905050506106d0565b604051808215151515815260200191505060405180910390f35b34801561024257600080fd5b5061026f6004803603602081101561025957600080fd5b81019080803590602001909291905050506106f0565b60405180806020018681526020018573ffffffffffffffffffffffffffffffffffffffff1673ffffffffffffffffffffffffffffffffffffffff16815260200184151515158152602001838152602001828103825287818151815260200191508051906020019080838360005b838110156102f75780820151818401526020810190506102dc565b50505050905090810190601f1680156103245780820380516001836020036101000a031916815260200191505b50965050505050505060405180910390f35b34801561034257600080fd5b506104266004803603606081101561035957600080fd5b810190808035906020019064010000000081111561037657600080fd5b82018360208201111561038857600080fd5b803590602001918460018302840111640100000000831117156103aa57600080fd5b91908080601f016020809104026020016040519081016040528093929190818152602001838380828437600081840152601f19601f82011690508083019250505050505050919291929080359060200190929190803573ffffffffffffffffffffffffffffffffffffffff1690602001909291905050506107f8565b005b34801561043457600080fd5b5061043d61096b565b6040518082815260200191505060405180910390f35b34801561045f57600080fd5b50610468610971565b6040518082815260200191505060405180910390f35b610486610977565b005b34801561049457600080fd5b506104c1600480360360208110156104ab57600080fd5b81019080803590602001909291905050506109f1565b005b6000809054906101000a900473ffffffffffffffffffffffffffffffffffffffff1673ffffffffffffffffffffffffffffffffffffffff163373ffffffffffffffffffffffffffffffffffffffff161461051c57600080fd5b60006005828154811061052b57fe5b906000526020600020906005020190508060020160149054906101000a900460ff161561055757600080fd5b60026004548161056357fe5b0481600401541161057357600080fd5b8060020160009054906101000a900473ffffffffffffffffffffffffffffffffffffffff1673ffffffffffffffffffffffffffffffffffffffff166108fc82600101549081150290604051600060405180830381858888f193505050501580156105e1573d6000803e3d6000fd5b5060018160020160146101000a81548160ff0219169083151502179055505050565b60028054600181600116156101000203166002900480601f0160208091040260200160405190810160405280929190818152602001828054600181600116156101000203166002900480156106995780601f1061066e57610100808354040283529160200191610699565b820191906000526020600020905b81548152906001019060200180831161067c57829003601f168201915b505050505081565b6106a9610977565b565b6000809054906101000a900473ffffffffffffffffffffffffffffffffffffffff1681565b60036020528060005260406000206000915054906101000a900460ff1681565b600581815481106106fd57fe5b9060005260206000209060050201600091509050806000018054600181600116156101000203166002900480601f0160208091040260200160405190810160405280929190818152602001828054600181600116156101000203166002900480156107a95780601f1061077e576101008083540402835291602001916107a9565b820191906000526020600020905b81548152906001019060200180831161078c57829003601f168201915b5050505050908060010154908060020160009054906101000a900473ffffffffffffffffffffffffffffffffffffffff16908060020160149054906101000a900460ff16908060040154905085565b6000809054906101000a900473ffffffffffffffffffffffffffffffffffffffff1673ffffffffffffffffffffffffffffffffffffffff163373ffffffffffffffffffffffffffffffffffffffff161461085157600080fd5b610859610b31565b6040518060a001604052808581526020018481526020018373ffffffffffffffffffffffffffffffffffffffff168152602001600015158152602001600081525090506005819080600181540180825580915050906001820390600052602060002090600502016000909192909190915060008201518160000190805190602001906108e6929190610b78565b506020820151816001015560408201518160020160006101000a81548173ffffffffffffffffffffffffffffffffffffffff021916908373ffffffffffffffffffffffffffffffffffffffff16021790555060608201518160020160146101000a81548160ff0219169083151502179055506080820151816004015550505050505050565b60015481565b60045481565b600154341161098557600080fd5b6001600360003373ffffffffffffffffffffffffffffffffffffffff1673ffffffffffffffffffffffffffffffffffffffff16815260200190815260200160002060006101000a81548160ff021916908315150217905550600460008154809291906001019190505550565b600360003373ffffffffffffffffffffffffffffffffffffffff1673ffffffffffffffffffffffffffffffffffffffff16815260200190815260200160002060009054906101000a900460ff16610a4757600080fd5b600060058281548110610a5657fe5b906000526020600020906005020190508060030160003373ffffffffffffffffffffffffffffffffffffffff1673ffffffffffffffffffffffffffffffffffffffff16815260200190815260200160002060009054906101000a900460ff1615610abf57600080fd5b60018160030160003373ffffffffffffffffffffffffffffffffffffffff1673ffffffffffffffffffffffffffffffffffffffff16815260200190815260200160002060006101000a81548160ff02191690831515021790555080600401600081548092919060010191905055505050565b6040518060a001604052806060815260200160008152602001600073ffffffffffffffffffffffffffffffffffffffff168152602001600015158152602001600081525090565b828054600181600116156101000203166002900490600052602060002090601f016020900481019282601f10610bb957805160ff1916838001178555610be7565b82800160010185558215610be7579182015b82811115610be6578251825591602001919060010190610bcb565b5b509050610bf49190610bf8565b5090565b610c1a91905b80821115610c16576000816000905550600101610bfe565b5090565b9056fea265627a7a72315820eb6304d360ff064d7aff43db1e1a5a2437f906f5cb4df70b2a9a636c2e5e692664736f6c63430005100032a265627a7a72315820e5c091ae73efd2a8dca12757d75b77e41cd7e8ee88cc31d0217b91078fe6f14b64736f6c63430005100032",
  "source": "pragma solidity ^0.5.0;\nimport './CrowdCollab.sol';\n\ncontract CampaignCreator {\n       address[] public campaigns; \nfunction createCampaign( uint minContribution, string memory description) public { \naddress newCampaign = address (new CrowdCollab( \n       msg.sender, \n       minContribution, \n       description\n       ));\n       campaigns.push(newCampaign);\n}\n\nfunction getDeployedCampaigns() public view returns( address[] memory) { \n   return campaigns;\n} \n}",
  "sourcePath": "/projects/kickstarter/contracts/CampaignCreator.sol",
  "compiler": {
    "name": "solc",
    "version": "0.5.16+commit.9c3226ce.Emscripten.clang"
  },
  "schemaVersion": "3.4.0",
  "updatedAt": "2021-05-30T18:02:57.399Z",
  "networkType": "ethereum",
  "devdoc": {
    "methods": {}
  },
  "userdoc": {
    "methods": {}
  }
}